:020000040800F2
:10000000602100209D0100089F160008C31300080E
:100010009D160008A9020008451B0008000000000A
:10002000000000000000000000000000AF01000818
:100030000F03000800000000B3010008A11600082B
:10004000B7010008B7010008B7010008B7010008B0
:10005000B7010008B7010008B7010008B7010008A0
:10006000B7010008B7010008B7010008B701000890
:10007000AD020008B7010008B7010008B701000889
:10008000B7010008B7010008B7010008B701000870
:10009000B7010008B7010008B7010008B701000860
:1000A000B7010008B7010008B7010008B701000850
:1000B000B7010008B7010008B7010008B701000840
:1000C000B7010008B7010008B7010008B701000830
:1000D000B7010008B7010008B7010008B701000820
:1000E000B7010008B7010008B7010008B701000810
:1000F000B7010008B7010008B7010008B701000800
:10010000B7010008B7010008B7010008B7010008EF
:10011000B7010008B7010008B7010008B7010008DF
:10012000B7010008B7010008B7010008B7010008CF
:10013000B7010008B7010008B7010008B7010008BF
:10014000B7010008B7010008B7010008B7010008AF
:10015000B7010008B7010008B7010008B70100089F
:10016000B7010008B7010008B7010008B70100088F
:10017000B7010008B7010008B7010008000000003F
:10018000B7010008B7010008DFF80CD000F07AF8DA
:10019000004800476D1B000860210020064880478A
:1001A00006480047FEE7FEE7FEE7FEE7FEE7FEE75C
:1001B000FEE7FEE7FEE7FEE73117000889010008C9
:1001C0002DE9F05F0546002092469B46884606468C
:1001D000814640241BE0284641464746224600F01F
:1001E00041F853465A46C01A914110D31146184659
:1001F000224600F028F82D1A67EB01084F462246E8
:100200000120002100F01FF817EB00094E41201ECD
:10021000A4F10104DFDC484631462A464346BDE8E6
:10022000F09FD2B201E000F8012B491EFBD27047CB
:100230000022F6E710B513460A4604461946FFF7B2
:10024000F0FF204610BD202A04DB203A00FA02F11C
:10025000002070479140C2F1200320FA03F31943B4
:1002600090407047202A04DB203A21FA02F0002156
:10027000704721FA02F3D040C2F1200291400843B6
:1002800019467047064C074D06E0E06840F0010350
:1002900094E8070098471034AC42F6D3FFF778FF94
:1002A000E01B0008001C0008FEE70000014800F009
:1002B00031B800BF3C00002010B501686FF00F029C
:1002C000182308A452FA81F2B2FBF3F35F2AE35C2D
:1002D00040F2FF3421EA040188BF0431C0E916135B
:1002E000084610BD0006101600061016B0B50468CA
:1002F000806825684028084625F4802525606360CD
:1003000008BF1046A06008BF0A46E260B0BD704753
:1003100070470000F8B504460020594A08210090B3
:10032000D4E9166015683768814039420CD02268DC
:1003300013685B0708D5136823F004031360B160EA
:10034000616D41F00101616501218140394208D0B0
:1003500022685269120604D5B160616D41F0020154
:10036000616504218140394208D0226812689207F1
:1003700004D5B160616D41F00401616510218140D7
:10038000394217D020680268120713D5B16002689D
:100390000168520306D4C90506D4016821F008019A
:1003A000016001E0080301D4216C00E0A16C09B1F7
:1003B00020468847E16D202000FA01F23A423BD006
:1003C00020680368DB0637D5B26094F835300268E0
:1003D000052B19D122F016020260426922F0800238
:1003E0004261226C0AB9A26C1AB1026822F00802BA
:1003F00002603F208840B060002084F83400012073
:1004000084F83500216D37E0016852030CD4C9052A
:100410000ED4016821F010010160002084F834003E
:10042000012084F8350003E0080301D4616C00E08A
:10043000E16B09B120468847606D00B3606DC0076D
:1004400019D005214FF4165084F83510B5FBF0F0A3
:1004500021680A6822F001020A60009A0132824291
:10046000009202D80A68D207F7D1012084F835003B
:10047000002084F83400E16C09B120468847F8BDBB
:10048000080000202DE9F041044600F095F9ACB1D8
:100490000546022084F835000020216884F83400E5
:1004A000086820F0010008600868C00709D000F063
:1004B00083F9401B052838D82168F5E70120BDE8FD
:1004C000F0810868271D344AE8CF00EA020ED4E91B
:1004D000050CD4E9072843EA0E032B4333433B437F
:1004E0001843636A40EA0C001043042B40EA0802F8
:1004F0001FD1D4E90A53206B1A4340EA0200086076
:1005000051F8140F20F0030040EA050040F0040207
:10051000B3B1BCF5005F24D0BCF1000F31D1022D86
:1005200032D0012D27D0002D2DE0032620270320D7
:1005300012E00A6051F8140F20F0070040EA0302AD
:1005400020460A60FFF7B8FEE16D3F220027012632
:1005500002FA01F181600020676584F83560BDE82A
:10056000F081032DECD8012640270120DFE805F0BB
:10057000020C0203F0E7A3F1C070B0FA80F040096A
:1005800004E0032D04D3DBD1C3F300600028D7D0EF
:10059000012640270120DFE73F8010F0B0B5044678
:1005A00090F83400012828D00120A56D84F834008B
:1005B00094F8350001281DD1022084F83500002070
:1005C00060652046FFF792FEE26D3F232068216CB4
:1005D00003FA02F2AA60026842F01602026019B140
:1005E000016841F008010160016841F0010101600A
:1005F0000020B0BD002084F834000220B0BD00000F
:10060000B0B5044600F0D8F805468D48611C007866
:1006100018BF044400F0D0F8401BA042FAD3B0BD8C
:100620002DE9FC4F5E4A08244FF0010B4FF0000803
:100630004FF0000E90425B4A08BF072402444FEA85
:10064000B223072B38BF4FEAB22400220094BEF138
:10065000200F08BFBDE8FC8F0F680BFA02F6374287
:1006600000F090804F68122F00F292800BFA07F48E
:1006700014F0061F00F08C8003234FEA420A03FAAD
:100680000EF48368CD686FEA040CA34305FA0EF5F7
:100690002B4383603B0945689340B5432B4343603C
:1006A000C4688D6804EA0C0405FA0AF52C43C4609A
:1006B00047F01004122C12D108F01C040F2303FA87
:1006C00004F56FF0030303EA52070744D7F82090BC
:1006D0000B6929EA0505A3402B433B624F68036879
:1006E00007F0030404FA0AF403EA0C03234303604B
:1006F000FB0047D500232E4C2B4F22F0030501931E
:100700002368BC463D4443F48043236023680F24A0
:1007100003F48043019308F00C03019F9C40254F94
:10072000B946EF5927EA0404009F07FA03F323436D
:1007300045F80930DCF800304D6843EA0604EF0361
:1007400058BF23EA0604CCF80040AF03DCF80430BD
:1007500043EA060458BF23EA0604CCF80440EF023B
:10076000DCF80830114F43EA060458BF23EA0604B8
:10077000CCF80840AD023B6843EA060458BF23EAC0
:1007800006043C6008F104080EF1020E01325EE737
:100790000323F24603FA0EF46FEA040C80E700BF6D
:1007A000001C02400000FEBF003C01400C3C014028
:1007B0004438024008FCFFFF05480068704700BF4E
:1007C0001F48034900780A6810440860704700BF5A
:1007D0005C01002080B50B48016841F400710160A4
:1007E000016841F480610160016841F48071016039
:1007F000032000F06DF8002000F006F800F022F869
:10080000002080BD003C024070B50D4E04464FF400
:100810007A713078B1FBF0F088490968B1FBF0F0EB
:1008200000F0D4FA01250F2C08D838B94FF0FF306A
:1008300021460022002500F02FF87460284670BD84
:100840000000002082B000200B4901904A6842F469
:1008500080424A604A6802F480420192019A009004
:10086000086840F080500860086800F080500090F0
:10087000009802B0704700BF40380240002808D4FA
:1008800000F01F010122400902FA01F1014A42F879
:100890002010704700E100E070B5134B4FF0FF35BA
:1008A0001B68C3F30223DC1E83F0070338BF002458
:1008B000042B28BF042305FA04F605FA03F3B24318
:1008C0009943A1401143BDE8704001F03DB900BF1C
:1008D00005494FF6FF030A681A4060F30A220348ED
:1008E00010430860704700BF0CED00E00000FA05FF
:1008F0002DE9F041002860D0434B04468846D3F8E8
:10090000000400F00F00884207D283F80084D3F877
:10091000000400F00F0040454FD12068810711D539
:10092000410703D5996841F4E0519960010703D567
:10093000996841F460419960A1689A6822F0F002D8
:1009400011439960C00731D1D3F8000400F00F00C3
:10095000404507D983F80084D3F8000400F00F0065
:1009600040452AD12068410705D5E1689A6822F4FC
:10097000E05211439960000706D52069996821F477
:10098000604141EAC00098601C4600F05DF8A16833
:100990001E4AC1F30311515CC840284908601C4835
:1009A0000068FFF731FF0020BDE8F0816068811E1C
:1009B000022905D21968890107D40120BDE8F08118
:1009C00001281DD119688903F7D599681D4621F0C2
:1009D000030108439860FFF7EFFE064641F28837AF
:1009E0006068A9682B4601F00C01B1EB800FABD019
:1009F000FFF7E2FE801BB842F2D90320BDE8F08188
:100A000019688907D9D5E0E700380240C61B0008FD
:100A10000400002009480A490A4A00680968C1F32D
:100A20008221515CC840704704480549054A006866
:100A30000968C1F34231515CC8407047080000208A
:100A400008380240D61B000810B5134C606800F04F
:100A50000C00082804D0042814BF1048104810BD0A
:100A6000226820680023400202F03F020C485CBF6D
:100A700042F20040C0F2F4002168C1F38811A0FBEB
:100A80000101FFF79DFB21680222C1F3014102EB46
:100A90004101B0FBF1F010BD043802400024F40025
:100AA000001BB7002DE9FC4100285CD0044600780B
:100AB000C34EC0070BD0B06800F00C00042840F013
:100AC0008F803068800302D5606800284BD0207882
:100AD00080071AD5B06810F00C0F09D0B06800F08C
:100AE0000C00082840F0A2807068400200F19E804F
:100AF0003068800702D5E068012834D12069316868
:100B000021F0F80141EAC0003060207800072DD4C0
:100B1000207840073ED4A76917B3B06800F00C00F6
:100B2000082840F0C380012F1DD0E169706800F4EF
:100B300080028A4217D1216A00F03F028A4212D114
:100B400047F6C071626A014091420CD1A16A00F47B
:100B500040328A4207D1E16A00F07060884202D1D7
:100B60000020BDE8FC810120BDE8FC816169954859
:100B7000002900F089800121C0F8801EFFF71CFECB
:100B80000546706F8007C3D4FFF716FE401B02288E
:100B9000F7D988E0306C4FF00008C0000CD4CDF8D5
:100BA00004804FF00108306C40F080503064306CAD
:100BB00000F0805001900198834F3868C00548D4F8
:100BC000386840F480703860FFF7F6FD05463868F5
:100BD000C0053ED4FFF7F0FD401B0228F7D962E0C4
:100BE000B06800F00C00082803D1706840023FF59F
:100BF00068AF6768B7F5803F07D03068B7F5A02FBA
:100C000040F0A58040F480203060306840F48030AF
:100C10003060FFF7D1FD0546306880033FF557AFE0
:100C2000FFF7CAFD401B6428F6D93CE0E0680028C5
:100C30005BD0644801210160FFF7BEFD05463068C6
:100C400080073FF55BAFFFF7B7FD401B0228F6D9E1
:100C500029E0A768012F05D0306F052F56D140F04D
:100C600004003067306F40F001003067FFF7A4FDEB
:100C7000054641F28837306F80075FD4FFF79CFD4F
:100C8000401BB842F7D90EE00021C0F8801EFFF7E4
:100C900093FD0546706F80077FF53AAFFFF78CFD37
:100CA000401B0228F6D90320BDE8FC8145490020FD
:100CB00088460866FFF780FD0546022F0AD14746A1
:100CC000306880015CD5FFF777FD411B03200229C6
:100CD000F6D946E7306880017FF542AFFFF76CFD3B
:100CE000411B03200229F5D93BE73648002101606A
:100CF000FFF762FD0546306880077FF506AFFFF716
:100D00005BFD411B03200229F5D92AE720F00100F1
:100D10003067306F20F004003067FFF74DFD054667
:100D2000002FA6D141F28837306F800706D5FFF734
:100D300043FD411B0320B942F6D912E7B8F1000F79
:100D40003FF4E9AE306C20F080503064E3E620F4EC
:100D500080303060306820F480203060FFF72CFD58
:100D60000546002F7FF458AF06E0FFF725FD411B35
:100D7000032064293FF6F5AE30688003F5D4A6E67B
:100D80001C341FCC0843D90340EA82104FF6FF728F
:100D9000914340EA0460A1F580310843706001206E
:100DA0003866FFF709FD0446306880013FF5D8AE8C
:100DB000FFF702FD011B03200229F5D9D1E600BF90
:100DC000003802400000474200700040411E0020F1
:100DD000B0EB116F1CBF01207047044AF023516033
:100DE00003490B70072190601160704710E000E02C
:100DF00023ED00E0F0B5024690F83C00012804BF66
:100E00000220F0BD002001F108074B6982F83C0088
:100E10001268E0CFD1E900C4C96926F47C5625F4F4
:100E2000705524F4F04435432C432CF4E0452C4316
:100E300027F4C0452C43234323F4804319435164D2
:100E4000F0BD000010B590F83C300222012B30D0EC
:100E500080F83D20012280F83C2002680B6854682D
:100E6000B2F1804F24F0700444EA030493685460A4
:100E700014D0114CA24211D0104CA2420ED0104CF2
:100E8000A2420BD00F4CA24208D09A4CA24205D0ED
:100E90000D4CA24202D0964CA24204D1496823F0E4
:100EA0008003194391600022012180F83C2080F8E2
:100EB0003D10104610BD00BF000400400008004077
:100EC000000C00400018004000400140B0B110B5D7
:100ED000044690F83D0028B9002084F83C002046E4
:100EE00000F00EF80220211D84F83D00206800F07B
:100EF0002DFC012084F83D00002010BD012070472A
:100F000082B000687A4988420FD07A49884218D165
:100F1000002001900C48016841F001010160006867
:100F200000F00100019001980BE0002000900648BD
:100F3000016841F002010160006800F002000090C9
:100F4000009802B0704700BF44380240B0B590F836
:100F50003C2004460220012A21D084F83D000120D3
:100F60004FF6777584F83C002068024652F8083F37
:100F7000AB4313600B682BB1102B03D0202B18BF91
:100F8000302B0DD1106820F07000184340F007009E
:100F900010600020012184F83C0084F83D10B0BDB1
:100FA000402B17D0502B22D0602B2DD0B3F5005FF3
:100FB00037D0702BEDD1D1E90103C968184340EA5D
:100FC0000120116821F47F4108431060106840F04F
:100FD0007700DDE74B68CA68194600F0CFFC22684D
:100FE00052F8080F40F0470020F03000D0E74B687F
:100FF000CA68194600F0C2FC226852F8080F40F097
:10100000570020F02000C3E74B68CA68194600F07B
:10101000C6FC226852F8080F40F0670020F010006C
:10102000B6E7D1E90103C968184340EA0120116815
:1010300021F47F4108431060106840F48040A7E726
:10104000F0B587B0044602A81421FFF7F1F8206834
:10105000274988421BD02749884247D10020019068
:10106000E448016841F0100101600221006800F0CD
:1010700010000190012005910690CDE903104FF476
:10108000D440029001981C4800F500642AE000203A
:10109000F549032502260127174C01900A6842F4FE
:1010A00080720A600A6802F480720192019A0190CB
:1010B000086840F004000860086802A900F0040015
:1010C0000190C02006950596CDE90367029001982E
:1010D00004F5C050FFF7A4FA4020CDE90565CDE93D
:1010E0000367029002A92046FFF79AFA07B0F0BD05
:1010F00000040140000001400008024070B50D46A8
:1011000090F83C1004460220012944D084F83D00A8
:101110004FEAB2000126032884F83C6036D8DFE8A5
:1011200000F0020A12222068294600F077FB2068AE
:1011300050F8181F0EE02068294600F099FB20683F
:1011400050F8181F16E02068294600F0C1FB2068FF
:1011500050F81C1F41F008010160016821F00401F2
:10116000016029690FE02068294600F0E3FB206850
:1011700050F81C1F41F400610160016821F4806196
:10118000016029690902026811430160002084F8A6
:101190003C0084F83D6070BDB0B110B5044690F8D5
:1011A0003D0028B9002084F83C00204600F00EF8ED
:1011B0000220211D84F83D00206800F0C7FA0120BC
:1011C00084F83D00002010BD012070477047704733
:1011D00050B310B5044690F8390028B9002084F8BF
:1011E0003800204600F022F8242084F839002068D6
:1011F000C16821F40051C160204600F035FC206830
:10120000016921F490410161416921F02A014161A4
:10121000C16841F40051C16000202021E06384F8DE
:10122000391084F83A1010BD0120704770B586B0AF
:10123000044601A81421FEF7FBFF216822488142E1
:1012400040D10026884900F5E03000960A6942F452
:1012500080220A610A6902F480220092009A0096B4
:101260000A6842F004020A60096801F00401009172
:10127000072105910321CDE90361022102914FF479
:1012800040610191009901A9FFF7CAF90F4D4FF490
:1012900040300F4B4FF480614FF00062C5E9080603
:1012A0004FF48070C5E90032C5E90266C5E904164D
:1012B000C5E906602846FFF7E5F808B1FFF728F80A
:1012C000AC63656306B070BD004800403C00002080
:1012D00028600240F8B5054690F83A00202807D16A
:1012E00013460A4631B12BB195F83800012803D1D5
:1012F00002242CE001242AE000240120154E174F7F
:10130000EC6385F838002220AB85AA6285F83A00A4
:10131000686B2968C0E913640F4E0431C0E90F7689
:10132000FFF73CF90094286801680091416800913A
:101330000099C16841F48071C160416941F00101C7
:10134000416185F83840416941F0400141612046E2
:10135000F8BD00BFC1190008471A0008151A000897
:10136000B0B51648D0F80A1042798379C479016281
:10137000C1898184017962F30A21D208C182417A4C
:1013800063F34A12C1F301150283027AC5778D090E
:101390008577550802F0010261F3CA15A10041EA00
:1013A0009311858341EA82214183017C80F82610D4
:1013B000417C80F82710418A0185B0BD10000020D3
:1013C0007047FEE7E0B50020002201902648016842
:1013D00041F4001101600021006800F40010019048
:1013E00001980C20FFF758FA0C20BDE88C40FFF75D
:1013F00045BA00BF3038024081B000211A48009140
:10140000026842F001020260026802F001020092EA
:10141000009A0091026842F004020260026802F041
:1014200004020092009A0091026842F48072026005
:10143000026802F480720092009A0091026842F001
:1014400080020260026802F080020092009A00911D
:10145000016841F010010160006800F01000009088
:10146000009801B0704700BF30380240B0B596B068
:1014700009AC00251C212046CDE91455CDE91255B3
:10148000CDE91055FEF7D4FE01A82021FEF7D0FECD
:101490003548DB4BA72244F61F61C0E90032C0E9A2
:1014A0000251C0E904558561FFF710FD08B1FEF750
:1014B0002FFF4FF4805012A912902B48FFF746FDE2
:1014C00008B1FEF725FF2848FFF766FE08B1FEF7D2
:1014D0001FFF002010A9CDE910002348FFF7B2FC40
:1014E00008B1FEF715FF4FF4FA6014210A9060204E
:1014F000099004F10800FEF79BFE1B4821460022DC
:10150000FFF7FCFD08B1FEF703FF174809A9042205
:10151000FFF7F4FD08B1FEF7FBFE134809A9082206
:10152000FFF7ECFD08B1FEF7F3FE0F4809A90C2206
:10153000FFF7E4FD08B1FEF7EBFE01AC14212046F5
:10154000FEF776FE0020214608904FF400500690EA
:101550000548FFF74FFC08B1FEF7DAFE0248FFF737
:101560006FFD16B0B0BD00BF9C000020B0B596B0B6
:1015700009AC00251C212046CDE91455CDE91255B2
:10158000CDE91055FEF754FE01A82021FEF750FECC
:101590003148F94BA72244F61F61C0E90032C0E987
:1015A0000251C0E904558561FFF790FC08B1FEF7D0
:1015B000AFFE4FF4805012A912902748FFF7C6FCE7
:1015C00008B1FEF7A5FE2448FFF7E6FD08B1FEF7D7
:1015D0009FFE002010A9CDE910001F48FFF732FC44
:1015E00008B1FEF795FE4FF4FA6014210A906020CE
:1015F000099004F10800FEF71BFE1748214600225F
:10160000FFF77CFD08B1FEF783FE134809A9042209
:10161000FFF774FD08B1FEF77BFE0F4809A9082209
:10162000FFF76CFD08B1FEF773FE01AC14212046F4
:10163000FEF7FEFD0020214608904FF40050069072
:101640000548FFF7D7FB08B1FEF762FE0248FFF737
:10165000F7FC16B0B0BD00BFDC00002070B50C4830
:101660000C4D0D4E00210C224FF480634FF480543A
:10167000C0E90065C0E90241C0E90432C0E90611D1
:10168000FFF7A6FD18B1BDE87040FEF741BE70BD82
:101690001C010020A086010000480040FEE77047C2
:1016A000FFF78EB8B0B592B000241F480225CDE9EF
:1016B0000A44CDE908440194016841F08051016079
:1016C000006800F08050019001980194174801686B
:1016D00041F480410160006800F48040019001986D
:1016E000109507201190A8200F9006200E904FF41F
:1016F0008000CDE90C504FF4803007900120069017
:1017000006A8FFF7CFF94FF48050052105904FF45C
:10171000A05004900F20CDE90254019001A8FFF7DA
:10172000E7F812B0B0BD00BF403802400070004082
:101730000548D0F8801041F47001C0F880104FF0D7
:1017400000610160704700BF08ED00E0B0B50268BD
:10175000B0F1804F0ED0274B98420BD0264B9842C9
:1017600008D0264B984205D0834B984202D0244B98
:10177000984203D14B6822F070021A43B0F1804FB7
:1017800020D01C4B98421DD01B4B98421AD01B4BAB
:10179000984217D01B4B984214D01B4B984211D043
:1017A0001A4B98420ED0164B98420BD0724B98426F
:1017B00008D0174B984205D0164B984202D0164BD2
:1017C000984203D1CB6822F440721A434D6922F04B
:1017D00080020B688C682A430260C4628362664B95
:1017E00040F480629A4204BF0969016301214161AA
:1017F000B0BD00BF0004004000080040000C0040E5
:101800000000014000180040001C00400020004083
:10181000004001400048014000440140F0B5026A28
:10182000554E22F0010202620B688A68046A24F0B5
:10183000020422434468856925F073052B4340F474
:101840008065B54205D1CF6822F00C0227F004076D
:101850003A43B54205D1D1E9055624F440742C43EE
:10186000344344608361496841630262F0BD00BF54
:10187000F0B5026A404E22F0100202620B688A68DC
:10188000046A24F0200444EA02124468856925F4BD
:10189000E64545EA032C40F48065B54207D1CF68A0
:1018A0006FF0400322F0C00203EA07131A43B54267
:1018B00007D1D1E9053524F4406444EA830343EABF
:1018C00085044460C0F818C0496881630262F0BDB5
:1018D000F0B5026A284E22F4807202620B688A68B0
:1018E000046A24F4007444EA02224468C56925F0BD
:1018F000730545EA030C40F48065B54208D1CF6812
:1019000040F2FF4322F440623F0227EA03031A43F6
:10191000B54207D1D1E9053524F4405444EA031314
:1019200043EA05144460C0F81CC04968C163026200
:10193000F0BD00BF70B5026A0F4E22F48052026201
:101940000C688A68036A23F4005343EA023243684E
:10195000C56925F4E64545EA042440F48065B542AE
:1019600004D14D6923F4804343EA85134360C46185
:1019700049680164026270BD0004014010B5036A49
:10198000046A24F001040462846924F0F00444EA47
:101990000212826123F00A021143016210BD036A40
:1019A00023F010030362836923F4704343EA023295
:1019B000036A826123F0A00242EA011101627047CA
:1019C00010B5846B2068416994F83920212A0BD125
:1019D00011F0800108D00021E184C16821F0C0012C
:1019E000C160202184F83910406994F83A10222906
:1019F00007D110F0400004D00020E085204600F020
:101A000025F8E06B40F01000E0632046BDE8104090
:101A1000FFF7DDBB0168806B0968C90511D400219F
:101A2000C1850168CA6822F48072CA604A6922F0DE
:101A300001024A614A6922F040024A61202180F88D
:101A40003A10FFF78DBC806BFFF7BABC0168CA681B
:101A500022F49072CA604A6922F001024A61202190
:101A600080F83A1070470000B0B50446006804F1F1
:101A700008030ECB056925F4405519432A4349F262
:101A80000C650261C26863691943E369AA4319439B
:101A9000B3F5004F41EA0201C1604169A26921F436
:101AA000407141EA02014161254940F4806004D15E
:101AB000884207D1FEF7B8FF06E088421FD1FEF743
:101AC000B3FF1EE0FEF7A6FF63681921A0FB01012A
:101AD0005A00DB0FFEF774FB64216FF06303B0FB69
:101AE000F1F202FB0300322303EBC000B0FBF1F183
:101AF0004FF4F87000EA410001F0070119E0FEF729
:101B000089FF63681921A0FB01019A009B0FFEF772
:101B100057FB64216FF06303B0FBF1F202FB03009B
:101B2000322303EB0010B0FBF1F101F0F00001F003
:101B30000F0100EB0210084321688860B0BD00BFB0
:101B400000140140FEE7000010B5074C00F00F0341
:101B5000044AB0F1FF3F2344C8BF8318080118703E
:101B600010BD00BF00E400E014ED00E0FEF732FE1F
:101B7000FFF798FDFFF740FCFFF724FCFFF7F6FCAA
:101B8000FFF774FCFFF76AFD054C06481222211D81
:101B9000FFF7A0FBE08A20600A20FEF731FDF9E79D
:101BA000100000201C01002002E008C8121F08C11C
:101BB000002AFAD170477047002001E001C1121FCE
:101BC000002AFBD170470000000000000000010265
:101BD00003040607080900000000010203040000D6
:101BE000001C00080000002010000000A81B0008D6
:101BF000101C00081000002050210000B81B000835
:101C000001000000100000000024F40000000000AB
:040000050800018965
:00000001FF
